:100000000C942A000C943F000C943F000C943F0089
:100010000C943F000C943F000C943F000C943F0064
:100020000C943F000C943F000C943F000C943F0054
:100030000C943F000C943F000C943F000C943F0044
:100040000C943F000C943F000C943F000C943F0034
:100050000C943F0011241FBECFE5D8E0DEBFCDBF1A
:1000600011E0A0E6B0E0E0EAF7E102C005900D92F1
:10007000AA38B107D9F70E945C0A0C94CE0B0C94F5
:100080000000EF92FF920F931F937B018C0120E001
:1000900030E040E05FE40E94BD0388238CF0C8019B
:1000A000B70120E030E040E05FE40E94B9010E9427
:1000B000ED039B01AC01205030404040504806C049
:1000C000C801B7010E94ED039B01AC01B901CA014F
:1000D0001F910F91FF90EF900895A0E0B0E0E3E74B
:1000E000F0E00C941E0BDC012B01FA019C91923084
:1000F00008F439C1EB018881823008F433C19430AF
:1001000069F4843009F02FC111969C91119789816F
:10011000981709F428C1A2E8B0E025C1843009F499
:1001200021C18230A9F4923009F01DC19A01AD01BC
:1001300088E0EA010990AE01E90109929E0181502F
:10014000C1F7E201898111969C918923818308C1BD
:10015000923009F407C112962D903C901397EB0151
:100160008A819B811496AD90BD90CD90DC901797BD
:10017000EC80FD800E811F819101281B390BB90194
:1001800037FF04C066277727621B730B6032710547
:100190000CF061C0121613066CF537014801062EEB
:1001A00004C096948794779467940A94D2F721E0D8
:1001B00030E040E050E004C0220F331F441F551FC1
:1001C0006A95D2F721503040404050402E213F21C7
:1001D00040235123211531054105510521F021E02E
:1001E00030E040E050E079018A01E628F72808294C
:1001F00019293CC0232BD1F1260E371E35014601AB
:10020000062E04C096948794779467940A94D2F744
:1002100021E030E040E050E004C0220F331F441FD3
:10022000551F6A95D2F721503040404050402A2156
:100230003B214C215D21211531054105510521F05E
:1002400021E030E040E050E059016A01A628B728DB
:10025000C828D9280BC0821593052CF01C01AA24AC
:10026000BB24650103C0EE24FF24870111969C91F5
:10027000D20111968C91981709F445C0992339F051
:10028000A80197012A193B094C095D0906C0A6017E
:1002900095012E193F09400B510B57FD08C01182E3
:1002A0003382228224833583468357831DC081E0B5
:1002B00081833382228288279927DC01821B930B5A
:1002C000A40BB50B84839583A683B7830DC0220F3F
:1002D000331F441F551F24833583468357838281F0
:1002E000938101979383828324813581468157814D
:1002F000DA01C9010197A109B1098F5F9F4FAF4F83
:10030000BF4328F30BC0918333822282EA0CFB1C8B
:100310000C1D1D1DE482F5820683178383E0808314
:10032000248135814681578157FF1AC0C901AA2708
:1003300097FDA095BA2F81709070A070B0705695FF
:10034000479537952795822B932BA42BB52B848328
:100350009583A683B7838281938101969383828359
:10036000DF0101C0D201CD01CDB7DEB7E2E10C94CF
:100370003A0BA0E2B0E0EFEBF1E00C942A0B6983BA
:100380007A838B839C832D833E834F835887E9E058
:10039000EE2EF12CEC0EFD1ECE010196B7010E944F
:1003A000DE058E010F5E1F4FCE010596B8010E943B
:1003B000DE058A8991E089278A8BC701B801AE01E1
:1003C000475E5F4F0E946D000E940905A096E6E01F
:1003D0000C94460BA0E2B0E0E0EFF1E00C942A0BA5
:1003E00069837A838B839C832D833E834F835887D5
:1003F000F9E0EF2EF12CEC0EFD1ECE010196B701B7
:100400000E94DE058E010F5E1F4FCE010596B801DA
:100410000E94DE05C701B801AE01475E5F4F0E9432
:100420006D000E940905A096E6E00C94460BA0E240
:10043000B0E0EDE1F2E00C941E0B69837A838B83CC
:100440009C832D833E834F835887CE010196BE0146
:10045000675F7F4F0E94DE05CE010596BE016F5E8D
:100460007F4F0E94DE059985923088F0898982301D
:10047000C8F0943019F4823051F404C0843029F467
:10048000923081F482E890E0C6C0923049F420E0D6
:100490009A858A89981321E02A87CE010996BBC0E4
:1004A000823049F420E09A858A89981321E02A8BCA
:1004B000CE014196B0C02D843E844F8458886D880B
:1004C0007E888F88988CEE24FF248701AA24BB2481
:1004D000650140E050E060E070E0E0E0F0E0C10184
:1004E00081709070892BE9F0E60CF71C081D191D2E
:1004F0009A01AB012A0D3B1D4C1D5D1D80E090E073
:10050000A0E0B0E0E614F7040805190520F481E046
:1005100090E0A0E0B0E0BA01A901480F591F6A1F9E
:100520007B1FAA0CBB1CCC1CDD1C97FE08C081E005
:1005300090E0A0E0B0E0A82AB92ACA2ADB2A3196C6
:10054000E032F10549F0660C771C881C991C569422
:10055000479437942794C3CFFA85EA892B893C893D
:100560008B859C85280F391F2E5F3F4F17C0CA010E
:1005700081709070892B61F016950795F794E79438
:1005800080E090E0A0E0B0E8E82AF92A0A2B1B2BD3
:1005900076956795579547952F5F3F4F77FDE7CF46
:1005A0000CC0440F551F661F771F17FD4160EE0CEE
:1005B000FF1C001F111F21503040403090E05907B0
:1005C00090E0690790E4790760F32B8F3C8FDB01A3
:1005D000CA018F779070A070B07080349105A1052A
:1005E000B10561F447FD0AC0E114F10401051105EC
:1005F00029F0405C5F4F6F4F7F4F40781A8EFE1797
:1006000011F081E08A8F4D8F5E8F6F8F78A383E02A
:10061000898FCE0149960E940905A096E2E10C94CB
:100620003A0BA8E1B0E0E7E1F3E00C94260B698314
:100630007A838B839C832D833E834F835887B9E0D5
:10064000EB2EF12CEC0EFD1ECE010196B7010E949F
:10065000DE058E010F5E1F4FCE010596B8010E9488
:10066000DE052985223008F47EC03989323010F445
:10067000B8017CC08A859A8989278A87243011F03D
:10068000223031F4231709F06EC062E870E06EC0CA
:10069000343039F41D861E861F86188A1C861B86F8
:1006A00004C0323021F484E08987B7015FC02B8514
:1006B0003C858B899C89281B390B3C872B87ED84D3
:1006C000FE840F851889AD88BE88CF88D88CEA143F
:1006D000FB040C051D0540F4EE0CFF1C001F111F50
:1006E000215030403C872B8720E030E040E050E054
:1006F00080E090E0A0E0B0E460E070E0EA14FB0489
:100700000C051D0540F0282B392B4A2B5B2BEA18D2
:10071000FB080C091D09B695A79597958795EE0CD2
:10072000FF1C001F111F6F5F7F4F6F31710531F785
:10073000DA01C9018F779070A070B0708034910594
:10074000A105B10561F427FD0AC0E114F10401051A
:10075000110529F0205C3F4F4F4F5F4F20782D87C8
:100760003E874F87588BBE01675F7F4FCB010E944A
:1007700009056896EAE00C94420BA8E1B0E0E3ECCE
:10078000F3E00C942A0B69837A838B839C832D83FB
:100790003E834F83588789E0E82EF12CEC0EFD1E36
:1007A000CE010196B7010E94DE058E010F5E1F4F3C
:1007B000CE010596B8010E94DE058985823040F0A1
:1007C0008989823028F0C701B8010E94560601C00D
:1007D0008FEF6896E6E00C94460BACE0B0E0E3EFF8
:1007E000F3E00C942E0B69837A838B839C83CE0178
:1007F0000196BE016B5F7F4F0E94DE058D818230C6
:1008000061F1823050F1843021F48E81882351F1DE
:100810002EC02F81388537FD20C06E812F313105E4
:100820001CF06623F9F023C08EE190E0821B930B4D
:1008300029853A854B855C8504C056954795379543
:1008400027958A95D2F76623B1F05095409530955B
:1008500021953F4F4F4F5F4F0EC020E030E040E00A
:1008600050E009C02FEF3FEF4FEF5FE704C020E0FB
:1008700030E040E050E8B901CA012C96E2E00C9467
:100880004A0BA8E0B0E0E7E4F4E00C94260B7B010F
:100890008C01611571058105910519F482E0898348
:1008A00060C083E089838EE1C82ED12CDC82CB82AC
:1008B000ED82FE820F831887C801B7010E94BA0437
:1008C000FC013197F7FF3BC0222733272E1B3F0B3C
:1008D00057016801022E04C0D694C794B794A79418
:1008E0000A94D2F740E050E060E070E081E090E0F0
:1008F000A0E0B0E004C0880F991FAA1FBB1F2A9573
:10090000D2F70197A109B1098E219F21A023B1231C
:100910000097A105B10521F041E050E060E070E0F2
:100920004A295B296C297D294D835E836F837887F3
:100930008EE190E08E1B9F0B9C838B8312C03097BF
:1009400081F00E2E04C0EE0CFF1C001F111F0A9434
:10095000D2F7ED82FE820F831887CE1ADF0ADC827F
:10096000CB821A82CE0101960E9409052896EAE000
:100970000C94420BEF92FF920F931F937B018C011B
:1009800080E0E81680E0F80681E0080780E01807BC
:1009900088F48FEFE816F1040105110531F028F015
:1009A00088E090E0A0E0B0E017C080E090E0A0E038
:1009B000B0E012C080E0E81680E0F80680E00807AA
:1009C00081E0180728F088E190E0A0E0B0E004C0E2
:1009D00080E190E0A0E0B0E020E230E040E050E0D4
:1009E000281B390B4A0B5B0B04C016950795F7942F
:1009F000E7948A95D2F7F701E657FF4F8081281BCD
:100A0000310941095109C9011F910F91FF90EF90E0
:100A10000895DF92EF92FF920F931F93FC01E48001
:100A2000F58006811781D1808081823048F480E092
:100A300090E0A0E1B0E0E82AF92A0A2B1B2BA5C020
:100A4000843009F49FC0823021F4EE24FF24870112
:100A500005C0E114F1040105110519F4E0E0F0E02E
:100A600096C0628173819FEF623879070CF05BC09A
:100A700022E83FEF261B370B2A3131052CF020E00E
:100A800030E040E050E02AC0B801A701022E04C0C7
:100A900076956795579547950A94D2F781E090E04F
:100AA000A0E0B0E004C0880F991FAA1FBB1F2A95C1
:100AB000D2F70197A109B1098E219F21A023B1236B
:100AC0000097A105B10521F081E090E0A0E0B0E041
:100AD0009A01AB01282B392B4A2B5B2BDA01C90178
:100AE0008F779070A070B07080349105A105B1052A
:100AF00039F427FF09C0205C3F4F4F4F5F4F04C0C0
:100B0000215C3F4F4F4F5F4FE0E0F0E02030A0E02E
:100B10003A07A0E04A07A0E45A0710F0E1E0F0E04D
:100B200079018A0127C06038710564F5FB01E1583D
:100B3000FF4FD801C7018F779070A070B0708034DC
:100B40009105A105B10539F4E7FE0DC080E490E000
:100B5000A0E0B0E004C08FE390E0A0E0B0E0E80ED9
:100B6000F91E0A1F1B1F17FF05C016950795F7945E
:100B7000E794319687E016950795F794E7948A9560
:100B8000D1F705C0EE24FF248701EFEFF0E06E2FD0
:100B9000679566276795902F9F77D794DD24D79424
:100BA0008E2F8695492F462B582F5D29B701CA01F4
:100BB0001F910F91FF90EF90DF900895FC01DB01F2
:100BC000408151812281622F6F7770E0221F22279E
:100BD000221F9381892F880F822B282F30E0991FA5
:100BE0009927991F11969C93119721153105A9F505
:100BF000411551056105710511F482E037C082E8A5
:100C00009FEF13969C938E9312979A01AB0167E026
:100C1000220F331F441F551F6A95D1F783E08C9331
:100C20000DC0220F331F441F551F12968D919C91AA
:100C30001397019713969C938E931297203080E020
:100C4000380780E0480780E4580758F314962D933E
:100C50003D934D935C93179708952F3F310579F499
:100C6000411551056105710519F484E08C930895CF
:100C700064FF03C081E08C9312C01C9210C02F57F8
:100C8000304013963C932E93129783E08C9387E029
:100C9000440F551F661F771F8A95D1F7706414960D
:100CA0004D935D936D937C93179708951F93DC018B
:100CB000FB019C91923008F447C08081823008F497
:100CC00043C0943051F411961C91843099F5818180
:100CD000682F70E0611B71093FC0843021F09230B1
:100CE00031F48230B9F18181882389F12DC01196C8
:100CF0001C9111978230F1F081811817D9F4129666
:100D00002D913C911397828193818217930794F0E0
:100D100028173907BCF014968D919D910D90BC91C8
:100D2000A02D2481358146815781281739074A072C
:100D30005B0718F4112341F00AC082179307A40738
:100D4000B50740F4112319F061E070E005C06FEFC2
:100D50007FEF02C060E070E0CB011F910895FC01BD
:100D600017B887B19081892B87B9379A86B191815D
:100D7000892B86B9089597B1907E982B97B9369AAA
:100D8000349BFECF349A24B135B1C90108951F9325
:100D9000162F413001F5882321F481E060E040E026
:100DA0000FC0813041F460E040E00E94990781E08B
:100DB00061E041E00AC0823051F481E060E041E04E
:100DC0000E94990781E061E040E00E949907812F2D
:100DD0000E94B90A1EC04230E1F4882321F481E068
:100DE00063E040E00FC0813041F463E040E00E94E6
:100DF000990781E064E041E00AC0823051F481E06B
:100E000063E041E00E94990781E064E040E00E94D5
:100E100099071F91089581E060E041E00E94250755
:100E200081E061E041E00E94250781E060E040E070
:100E30000E94990781E061E040E00E94990781E00B
:100E400063E041E00E9425070895683008F070C013
:100E5000843008F06DC0813009F1813030F082308B
:100E6000B1F1833009F064C04BC0413059F42AB36A
:100E700081E090E002C0880F991F6A95E2F7282B65
:100E80002ABB08952AB381E090E002C0880F991F21
:100E90006A95E2F7809582238ABB0895413059F420
:100EA00027B381E090E002C0880F991F6A95E2F7AE
:100EB000282B27BB089527B381E090E002C0880F5C
:100EC000991F6A95E2F78095822387BB0895413088
:100ED00059F424B381E090E002C0880F991F6A950D
:100EE000E2F7282B24BB089524B381E090E002C0F0
:100EF000880F991F6A95E2F78095822384BB089535
:100F0000413059F421B381E090E002C0880F991F6D
:100F10006A95E2F7282B21BB089521B381E090E088
:100F200002C0880F991F6A95E2F78095822381BBE2
:100F30000895683008F070C0843008F06DC08130CA
:100F400009F1813030F08230B1F1833009F064C0B2
:100F50004BC0413059F42BB381E090E002C0880FC0
:100F6000991F6A95E2F7282B2BBB08952BB381E0DC
:100F700090E002C0880F991F6A95E2F7809582235E
:100F80008BBB0895413059F428B381E090E002C052
:100F9000880F991F6A95E2F7282B28BB089528B37C
:100FA00081E090E002C0880F991F6A95E2F7809572
:100FB000822388BB0895413059F425B381E090E045
:100FC00002C0880F991F6A95E2F7282B25BB089568
:100FD00025B381E090E002C0880F991F6A95E2F77F
:100FE0008095822385BB0895413059F422B381E076
:100FF00090E002C0880F991F6A95E2F7282B22BB68
:10100000089522B381E090E002C0880F991F6A958D
:10101000E2F78095822382BB08956830D0F4843053
:10102000C0F4813049F0813028F0823039F08330CB
:1010300081F406C089B305C086B303C083B301C081
:1010400080B390E002C0959587956A95E2F781702C
:10105000089580E00895843080F4813049F0813033
:1010600028F0823039F0833041F406C06ABB08951D
:1010700067BB089564BB089561BB0895843080F414
:10108000813049F0813028F0823039F0833041F4EA
:1010900006C06BBB089568BB089565BB089562BB2D
:1010A0000895843088F4813049F0813028F082300E
:1010B00039F0833049F406C089B3089586B30895A2
:1010C00083B3089580B3089580E00895DF92EF928E
:1010D000FF920F931F93D82E80E061E041E00E94C1
:1010E0009907E0EAEE2EEFE0FE2EC7010197F1F737
:1010F00080E062E041E00E949907C7010197F1F7A3
:101100000D2D10E0A8014071507074E05595479581
:101110007A95E1F780E063E00E949907A8014072A8
:10112000507065E0559547956A95E1F780E064E079
:101130000E949907A8014074507036E05595479574
:101140003A95E1F780E065E00E9499074D2D441F34
:101150004427441F80E066E00E949907C701019779
:10116000F1F780E062E040E00E949907C701019733
:10117000F1F780E062E041E00E949907C701019722
:10118000F1F781E0D82280E063E04D2D0E949907BD
:10119000A801427050705595479580E064E00E9428
:1011A0009907A801447050705595479555954795F6
:1011B00080E065E00E9499070870107083E0159543
:1011C00007958A95E1F780E066E0402F0E94990735
:1011D000C7010197F1F780E062E040E00E949907C3
:1011E000C7010197F1F71F910F91FF90EF90DF90EA
:1011F00008951F93CF93DF93EC0110E003C00E948A
:1012000066081F5FFE01E10FF11D80818823B9F799
:10121000DF91CF911F9108950F931F93DF93CF9389
:10122000CDB7DEB760970FB6F894DEBF0FBECDBF67
:101230008E010F5F1F4FA8012AE030E00E94760B5D
:10124000C8010E94F90860960FB6F894DEBF0FBE81
:10125000CDBFCF91DF911F910F9108950F931F93F1
:10126000DF93CF93CDB7DEB760970FB6F894DEBFAC
:101270000FBECDBF8E010F5F1F4FB8014AE050E097
:101280000E94550BC8010E94F90860960FB6F894A9
:10129000DEBF0FBECDBFCF91DF911F910F9108959B
:1012A000DF92EF92FF920F931F93D82E80E061E0C0
:1012B00040E00E94990730EAE32E3FE0F32EC70199
:1012C0000197F1F780E062E041E00E949907C701D1
:1012D0000197F1F70D2D10E0A8014071507024E046
:1012E000559547952A95E1F780E063E00E949907BC
:1012F000A8014072507095E0559547959A95E1F791
:1013000080E064E00E949907A8014074507086E074
:10131000559547958A95E1F780E065E00E94990729
:101320004D2D441F4427441F80E066E00E9499072A
:10133000C7010197F1F780E062E040E00E94990761
:10134000C7010197F1F780E062E041E00E94990750
:10135000C7010197F1F781E0D82280E063E04D2DCD
:101360000E949907A801427050705595479580E0FA
:1013700064E00E949907A801447050705595479504
:101380005595479580E065E00E94990708701070B8
:10139000F3E015950795FA95E1F780E066E0402FB8
:1013A0000E949907C7010197F1F780E062E040E0F1
:1013B0000E949907C7010197F1F71F910F91FF90C4
:1013C000EF90DF90089581E00E94500908958130E8
:1013D00039F0813050F0823029F0833031F404C08C
:1013E000605C03C0605F01C0605B862F80680E9404
:1013F000500908950F931F938A010E94E709C801BD
:101400000E94F9081F910F91089580E061E041E08A
:101410000E94250780E062E041E00E94250788ECF9
:1014200090E020E931E0F9013197F1F70197D9F720
:1014300080E063E041E00E94250780E064E041E055
:101440000E94250780E065E041E00E94250780E0DA
:1014500066E041E00E94250783E30E94500982E391
:101460000E94500988E20E9450098CE00E945009B5
:1014700081E00E945009089580E00E94BB06A0E030
:10148000B0E0BC01CD0126E930E040E050E00E9430
:10149000DD0A0E9441042AE037ED43E250E40E9455
:1014A000170220E030ED4FEB54E40E9411030E943C
:1014B0004100DC01CB0108951F93DF93CF9300D04F
:1014C000CDB7DEB780EC898387E08A838FB78068E9
:1014D0008FBFCE0101960E94AF060E940B070E94AB
:1014E000050A81E064E00E94E70980E690E00E943E
:1014F000F9080E943C0A182F883718F081E064E64A
:101500000EC08A3518F081E06BE409C08C3318F006
:1015100081E062E304C08E3160F081E069E141E086
:101520000E94C70680E064E00E94E70987E790E038
:101530000BC080E060E041E00E94C70680E064E00C
:101540000E94E7098CE690E00E94F90881E06BE0D8
:101550000E94E709143628F0812F90E00E942E099E
:10156000C8CF812F90E00E942E0980E20E94660879
:10157000C0CF12BE9FEF899FC0011124AA2797FDFB
:10158000A095BA2FBC01CD0124E630E040E050E048
:101590000E94FC0A2CBF83B7806483BF83B7886036
:1015A00083BF83B7806283BF83B7826083BF81E0DC
:1015B00063E041E00E9425070895629FD001739F78
:1015C000F001829FE00DF11D649FE00DF11D929FDF
:1015D000F00D839FF00D749FF00D659FF00D99271E
:1015E000729FB00DE11DF91F639FB00DE11DF91F42
:1015F000BD01CF0111240895A1E21A2EAA1BBB1B25
:10160000FD010DC0AA1FBB1FEE1FFF1FA217B307CE
:10161000E407F50720F0A21BB30BE40BF50B661FE4
:10162000771F881F991F1A9469F7609570958095A8
:1016300090959B01AC01BD01CF0108952F923F927F
:101640004F925F926F927F928F929F92AF92BF92D2
:10165000CF92DF92EF92FF920F931F93CF93DF937E
:10166000CDB7DEB7CA1BDB0B0FB6F894DEBF0FBEDB
:10167000CDBF09942A88398848885F846E847D8428
:101680008C849B84AA84B984C884DF80EE80FD802A
:101690000C811B81AA81B981CE0FD11D0FB6F894A0
:1016A000DEBF0FBECDBFED010895FB019F01E894A1
:1016B0004230C4F04532B4F44A3029F497FB1EF4AA
:1016C000909581959F4F642F77270E94BA0B805D7C
:1016D0008A330CF0895D8193CB010097A1F716F452
:1016E0005DE251931082C9010C94AA0BFA01CF93C9
:1016F000FF93EF93223044F1253234F5C22FE89462
:10170000CA3049F497FB3EF49095809570956195A9
:101710007F4F8F4F9F4F2C2F332744275527FF9301
:10172000EF930E94FC0AEF91FF91605D6A330CF029
:10173000695D6193B901CA0160507040804090407A
:1017400051F716F4CDE2C19310828F919F91CF9102
:101750000C94AA0BDC01FC01672F71917723E1F750
:10176000329704C07C916D9370836291AE17BF076E
:10177000C8F30895AA1BBB1B51E107C0AA1FBB1FDA
:10178000A617B70710F0A61BB70B881F991F5A950D
:10179000A9F780959095BC01CD010895F894FFCFED
:1017A00054656D70203D20202020430046414E208E
:1017B0006973204F46460046414E206973204F4EC4
:1017C00020000000000000000000000102020303EE
:1017D00003030404040404040404050505050505C5
:1017E00005050505050505050505060606060606A3
:1017F0000606060606060606060606060606060689
:101800000606060606060606060607070707070772
:101810000707070707070707070707070707070758
:101820000707070707070707070707070707070748
:101830000707070707070707070707070707070738
:101840000707070707070707070708080808080822
:101850000808080808080808080808080808080808
:1018600008080808080808080808080808080808F8
:1018700008080808080808080808080808080808E8
:1018800008080808080808080808080808080808D8
:1018900008080808080808080808080808080808C8
:1018A00008080808080808080808080808080808B8
:1018B00008080808080808080808080808080808A8
:0A18C00008080808080808080808CE
:00000001FF
